:020000040800F2
:1000000000500020E11E0008ED030008F90300087D
:1000100001040008090400081104000800000000A1
:1000200000000000000000000000000019040008AB
:100030002504000800000000310400083D04000809
:10004000291F0008291F0008291F0008291F000870
:10005000291F0008291F0008291F0008291F000860
:10006000291F0008291F0008291F0008291F000850
:10007000291F0008291F0008291F0008291F000840
:10008000291F0008291F0008291F0008291F000830
:10009000291F0008291F0008291F0008291F000820
:1000A000291F0008291F0008291F0008291F000810
:1000B000291F0008291F0008291F0008291F000800
:1000C000291F0008291F0008291F0008291F0008F0
:1000D000291F000859040008291F0008291F0008CB
:1000E000291F0008291F0008291F00080000000020
:1000F0000000000000000000000000000000000000
:0C01000000000000000000005FF808F1A3
:10010C00044B05481B1A062B02D9044B03B11847A4
:10011C00704700BF130000201000002000000000FA
:10012C0005490648091A891001EBD171491002D012
:10013C00034B03B11847704710000020100000203B
:10014C000000000010B5064C237843B9FFF7D8FF28
:10015C00044B13B10448AFF300800123237010BD8E
:10016C001000002000000000781F000808B5084BA4
:10017C001BB108480849AFF300800848036813B95D
:10018C00BDE80840CCE7064B002BF9D09847F7E7C1
:10019C0000000000781F0008140000201000002050
:1001AC000000000080B582B000AF0123FB711E4A35
:1001BC003B4692E8030018600433198000F0ECF918
:1001CC0000F03AF800F088F800F0D8F8174BDB8D07
:1001DC009BB2002B27D1FB1D1448194601224FF46A
:1001EC007A7301F0EFF9FB79012B03D1104B01224B
:1001FC001A7008E00E4B00221A700E4A0D4B1B6948
:10020C0043F4005313610A4B1B78012B05D1094AA7
:10021C00084BDB6883F40053D360FB1D034819467D
:10022C00012201F067FAD1E7901F0008300000208E
:10023C00000000200010014080B590B000AF0123F9
:10024C00BB614FF48033FB6100233B620123BB6233
:10025C0002237B634FF48033BB634FF4E013FB63E7
:10026C0007F11803184600F0FBF90346002B03D0E6
:10027C001748642100F0AEF80F237B600223BB60AB
:10028C008023FB6000233B6100237B613B1D1846F0
:10029C00022100F047FC0346002B03D00C487221CE
:1002AC0000F098F800F098FD02460A4BA3FB0223DD
:1002BC009B09184601F0D0F8042001F0D9F84FF052
:1002CC00FF300021002201F09DF84037BD4680BD73
:1002DC00981F0008D34D621080B588B000AF244A37
:1002EC00234B9B6943F010039361214B9B6903F0F3
:1002FC001003FB60FB681E4A1D4B9B6943F02003F7
:10030C0093611B4B9B6903F02003BB60BB68184ACD
:10031C00174B9B6943F004039361154B9B6903F0E6
:10032C0004037B607B6813484FF40051012200F0FA
:10033C0003FF4FF400533B6101237B610023BB613E
:10034C000223FB6107F110030A48194600F096FDE1
:10035C0001233B6100237B610123BB6107F1100387
:10036C000548194600F08AFD2037BD4680BD00BF08
:10037C0000100240001001400008014080B500AFA1
:10038C00114B124A1A60104B4FF4E1325A600E4B6B
:10039C0000229A600C4B0022DA600B4B00221A618F
:1003AC00094B0C225A61084B00229A61064B002221
:1003BC00DA61054801F0B8F80346002B03D0044875
:1003CC00AA2100F007F880BD300000200038014061
:1003DC00981F000880B483B000AF78603960FEE7E6
:1003EC0080B400AFBD465DF8047B704780B400AFAD
:1003FC00FEE700BF80B400AFFEE700BF80B400AFE3
:10040C00FEE700BF80B400AFFEE700BF80B400AFD2
:10041C00BD465DF8047B704780B400AFBD465DF807
:10042C00047B704780B400AFBD465DF8047B704719
:10043C0080B500AF00F0F6F801F036F8024B1B68FF
:10044C000133014A136080BD2C00002080B500AF41
:10045C00014801F0A5F980BD3000002080B584B0C2
:10046C0000AF2B4A2A4B9B6943F001039361284B45
:10047C009B6903F00103BB60BB68254A244BDB6915
:10048C0043F08053D361224BDB6903F080537B60D4
:10049C007B68032000F0ACFF6FF00B000021002202
:1004AC0000F0B0FF6FF00A000021002200F0AAFF5C
:1004BC006FF009000021002200F0A4FF6FF004008F
:1004CC000021002200F09EFF6FF0030000210022AB
:1004DC0000F098FF6FF001000021002200F092FF65
:1004EC004FF0FF300021002200F08CFF094B5B68BD
:1004FC00FB60FB6823F0E063FB60FB6843F0806308
:10050C00FB60044AFB6853601037BD4680BD00BFDA
:10051C00001002400000014080B588B000AF786048
:10052C007B681B68194A93422DD1194A184B9B6959
:10053C0043F480439361164B9B6903F48043FB6047
:10054C00FB684FF400733B6102237B610323FB6167
:10055C0007F110030F48194600F090FC4FF480632C
:10056C003B6100237B610023BB6107F11003094849
:10057C00194600F083FC25200021002200F042FFE8
:10058C00252000F05BFF2037BD4680BD00380140C0
:10059C00001002400008014080B500AF084A084B2B
:1005AC001B6843F010031360032000F021FF0020B0
:1005BC0000F008F8FFF752FF0023184680BD00BF7B
:1005CC000020024080B582B000AF7860124B1A68F0
:1005DC00124B1B7819464FF47A73B3FBF1F3B2FB51
:1005EC00F3F3184600F038FF0346002B01D001232B
:1005FC000EE07B680F2B0AD84FF0FF307968002291
:10060C0000F000FF064A7B681360002300E0012322
:10061C0018460837BD4680BD0C000020080000209D
:10062C000400002080B400AF054B1B781A46054B24
:10063C001B681344034A1360BD465DF8047B704786
:10064C00080000207000002080B400AF034B1B6832
:10065C001846BD465DF8047B704700BF7000002053
:10066C0080B586B000AF786000233B617B681B6867
:10067C0003F00103002B00F08580914B5B6803F0C5
:10068C000C03042B0BD08E4B5B6803F00C03082B74
:10069C0012D18B4B5B6803F48033002B0CD0884B4E
:1006AC001B6803F40033002B05D07B685B68002BC0
:1006BC0001D101232CE265E07B685B68B3F5803FD8
:1006CC0006D17F4A7E4B1B6843F4803313602EE0C7
:1006DC007B685B68002B0CD1794A794B1B6823F43F
:1006EC0080331360764A764B1B6823F480231360A7
:1006FC001DE07B685B68B3F5A02F0CD1704A704B82
:10070C001B6843F4802313606D4A6D4B1B6843F4E4
:10071C00803313600BE06A4A694B1B6823F4803307
:10072C001360674A664B1B6823F4802313607B6855
:10073C005B68002B13D0FFF787FF386108E0FFF7E9
:10074C0083FF02463B69D31A642B01D90323DFE1F3
:10075C005B4B1B6803F40033002BF0D012E0FFF767
:10076C0073FF386108E0FFF76FFF02463B69D31A4D
:10077C00642B01D90323CBE1514B1B6803F40033E9
:10078C00002BF0D17B681B6803F00203002B63D0B5
:10079C004B4B5B6803F00C03002B0BD0484B5B6896
:1007AC0003F00C03082B1CD1454B5B6803F480331E
:1007BC00002B16D1424B1B6803F00203002B05D013
:1007CC007B681B69012B01D00123A1E13C493C4B07
:1007DC001B6823F0F8027B685B69DB0013430B603A
:1007EC003AE07B681B69002B20D0364B01221A6043
:1007FC00FFF72AFF386108E0FFF726FF02463B6946
:10080C00D31A022B01D9032382E12D4B1B6803F071
:10081C000203002BF0D02A49294B1B6823F0F80265
:10082C007B685B69DB0013430B6015E0254B0022F2
:10083C001A60FFF709FF386108E0FFF705FF024671
:10084C003B69D31A022B01D9032361E11C4B1B68B2
:10085C0003F00203002BF0D17B681B6803F0080344
:10086C00002B39D07B689B69002B19D0164B0122C9
:10087C001A60FFF7E9FE386108E0FFF7E5FE024673
:10088C003B69D31A022B01D9032341E10C4B5B6A60
:10089C0003F00203002BF0D0012000F0D1FA1BE092
:1008AC00094B00221A60FFF7CFFE38610EE0FFF70C
:1008BC00CBFE02463B69D31A022B07D9032327E14F
:1008CC00001002400000424280044242924B5B6A9C
:1008DC0003F00203002BEAD17B681B6803F00403CE
:1008EC00002B00F0A6800023FB758B4BDB6903F01B
:1008FC008053002B0DD1884A874BDB6943F0805322
:10090C00D361854BDB6903F08053FB60FB680123EB
:10091C00FB75824B1B6803F48073002B18D17F4A44
:10092C007E4B1B6843F480731360FFF78DFE3861B8
:10093C0008E0FFF789FE02463B69D31A642B01D904
:10094C000323E5E0754B1B6803F48073002BF0D098
:10095C007B68DB68012B06D16F4A6F4B1B6A43F037
:10096C00010313622DE07B68DB68002B0CD16A4A13
:10097C00694B1B6A23F001031362674A664B1B6ABF
:10098C0023F0040313621CE07B68DB68052B0CD19D
:10099C00614A614B1B6A43F0040313625E4A5E4B6F
:1009AC001B6A43F0010313620BE05B4A5A4B1B6A50
:1009BC0023F001031362584A574B1B6A23F00403BC
:1009CC0013627B68DB68002B15D0FFF73DFE3861A6
:1009DC000AE0FFF739FE02463B69D31A41F288322E
:1009EC00934201D9032393E04B4B1B6A03F00203A0
:1009FC00002BEED014E0FFF727FE38610AE0FFF77A
:100A0C0023FE02463B69D31A41F28832934201D944
:100A1C0003237DE0404B1B6A03F00203002BEED155
:100A2C00FB7D012B05D13C4A3B4BDB6923F080530A
:100A3C00D3617B68DB69002B69D0374B5B6803F0B3
:100A4C000C03082B61D07B68DB69022B46D1344B3D
:100A5C0000221A60FFF7F8FD386108E0FFF7F4FD9B
:100A6C0002463B69D31A022B01D9032350E02A4BCF
:100A7C001B6803F00073002BF0D17B681B6AB3F585
:100A8C00803F08D12449244B5B6823F400327B68F7
:100A9C009B6813434B6020481F4B5B6823F4741214
:100AAC007B68196A7B685B6A0B43134343601C4B7E
:100ABC0001221A60FFF7C8FD386108E0FFF7C4FD9A
:100ACC0002463B69D31A022B01D9032320E0124BB7
:100ADC001B6803F00073002BF0D018E0104B0022C1
:100AEC001A60FFF7B1FD386108E0FFF7ADFD024673
:100AFC003B69D31A022B01D9032309E0064B1B686F
:100B0C0003F00073002BF0D101E0012300E000237F
:100B1C0018461837BD4680BD0010024000700040DA
:100B2C006000424280B584B000AF78603960002329
:100B3C00FB60734B1B6803F007023B689A4210D2B0
:100B4C006F496F4B1B6823F007023B6813430B6024
:100B5C006B4B1B6803F007023B689A4201D00123E0
:100B6C00C9E07B681B6803F00203002B08D06549C1
:100B7C00644B5B6823F0F0027B689B6813434B600B
:100B8C007B681B6803F00103002B6BD07B685B68F0
:100B9C00012B07D15B4B1B6803F40033002B15D1E1
:100BAC000123A8E07B685B68022B07D1554B1B68BF
:100BBC0003F00073002B09D101239CE0514B1B68FF
:100BCC0003F00203002B01D1012394E04D494D4B5E
:100BDC005B6823F003027B685B6813434B60FFF791
:100BEC0033FDF8607B685B68012B12D10AE0FFF7DC
:100BFC002BFD0246FB68D31A41F28832934201D98D
:100C0C00032378E03F4B5B6803F00C03042BEED11D
:100C1C0028E07B685B68022B12D10AE0FFF714FD19
:100C2C000246FB68D31A41F28832934201D903235E
:100C3C0061E0344B5B6803F00C03082BEED111E040
:100C4C000AE0FFF701FD0246FB68D31A41F2883235
:100C5C00934201D903234EE02A4B5B6803F00C034B
:100C6C00002BEED1264B1B6803F007023B689A421F
:100C7C0010D92349224B1B6823F007023B6813430E
:100C8C000B601F4B1B6803F007023B689A4201D0B4
:100C9C00012330E07B681B6803F00403002B08D0B1
:100CAC001849184B5B6823F4E0627B68DB681343DC
:100CBC004B607B681B6803F00803002B09D01149BB
:100CCC00104B5B6823F460527B681B69DB00134399
:100CDC004B6000F01DF801460A4B5B6803F0F00313
:100CEC001B09094AD35C21FA03F3084A136000205C
:100CFC00FFF768FC002318461037BD4680BD00BFC7
:100D0C000020024000100240B81F00080C00002018
:100D1C0090B48AB000AF2B4B3C1D186859689A6888
:100D2C00DB680FC4284A3B4612881A800023FB61FB
:100D3C000023BB6100237B6200237B6100233B62A9
:100D4C00224B5B68FB61FB6903F00C03042B02D0A4
:100D5C00082B03D02DE01E4B3B622DE0FB6903F406
:100D6C0070139B0C07F12802134413F8243C7B618D
:100D7C00FB6903F48033002B13D0144B5B6803F432
:100D8C0000335B0C07F12802134413F8283CBB61B9
:100D9C007B690F4A02FB03F2BB69B2FBF3F37B6284
:100DAC0004E07B690B4A02FB03F37B627B6A3B62C8
:100DBC0002E0074B3B6200BF3B6A18462837BD4632
:100DCC0090BC7047A41F0008B41F0008001002401C
:100DDC0000127A0000093D0080B400AF034B1B6881
:100DEC001846BD465DF8047B704700BF0C00002020
:100DFC0080B500AFFFF7F0FF0146054B5B6803F4CD
:100E0C00E0631B0A034AD35C21FA03F3184680BD46
:100E1C0000100240C81F000880B500AFFFF7DCFFD0
:100E2C000146054B5B6803F46053DB0A034AD35C51
:100E3C0021FA03F3184680BD00100240C81F0008B9
:100E4C0080B485B000AF78600A4B1B680A4AA2FBDD
:100E5C0003235B0A7A6802FB03F3FB6000BFFB68A9
:100E6C005A1EFA60002BF9D11437BD465DF8047B8D
:100E7C00704700BF0C000020D34D621080B48BB0C3
:100E8C0000AF786039600023FB610023BB61002355
:100E9C007B6100233B6200233B6100237B6228E1E2
:100EAC007B6A012202FA03F3FB613B681A68FB6957
:100EBC001340BB61BA69FB699A4240F017813B68E9
:100ECC005B68122B34D0122B0DD8022B2BD0022B9B
:100EDC0004D8002B31D0012B1CD049E0032B44D07B
:100EEC00112B1BD044E0874A934226D0854A93426B
:100EFC0006D8854A934220D0844A93421DD037E0CD
:100F0C00834A934219D0834A934216D0824A934221
:100F1C0013D02DE03B68DB683B6229E03B68DB6863
:100F2C0004333B6224E03B68DB6808333B621FE020
:100F3C003B68DB680C333B621AE03B689B68002B18
:100F4C0002D104233B620FE03B689B68012B05D167
:100F5C0008233B627B68FA691A6105E008233B624F
:100F6C007B68FA695A6103E002E000233B6200BF30
:100F7C00BB69FF2B01D87B6801E07B680433FB6005
:100F8C00BB69FF2B02D87B6A9B0002E07B6A083BA3
:100F9C009B003B61FB681A683B690F2101FA03F364
:100FAC00DB431A403B69396A01FA03F31A43FB68C5
:100FBC001A603B685B6803F08053002B00F096804E
:100FCC00564A564B9B6943F001039361534B9B6903
:100FDC0003F00103BB60BB68514A7B6A9B08023378
:100FEC0052F823307B617B6A03F003039B001A46A3
:100FFC000F239340DB437A6913407B617B68494A3A
:10100C00934213D07B68484A93420DD07B68474A81
:10101C00934207D07B68464A934201D1032306E0F2
:10102C00042304E0022302E0012300E000237A6A97
:10103C0002F00302920093407A6913437B613849B2
:10104C007B6A9B0802337A6941F823203B685B6812
:10105C0003F48033002B06D03649364B1A68BB6933
:10106C0013430B6006E03349324B1A68BB69DB4310
:10107C0013400B603B685B6803F40033002B06D015
:10108C002C492C4B5A68BB6913434B6006E0294929
:10109C00284B5A68BB69DB4313404B603B685B6869
:1010AC0003F48013002B06D02249224B9A68BB69AB
:1010BC0013438B6006E01F491E4B9A68BB69DB43E8
:1010CC0013408B603B685B6803F40013002B06D065
:1010DC001849184BDA68BB691343CB6006E0154915
:1010EC00144BDA68BB69DB431340CB607B6A01337A
:1010FC007B627B6A0F2B7FF6D3AE2C37BD465DF837
:10110C00047B704700002110000011100000121029
:10111C0000003110000032100000221000100240BC
:10112C000000014000080140000C0140001001408B
:10113C00001401400004014080B483B000AF78601B
:10114C000B467B8013467B707B78002B03D07A8810
:10115C007B681A6103E07B881A047B681A610C3780
:10116C00BD465DF8047B704780B584B000AF7860F5
:10117C000023FB737B6893F82130022B05D07B682E
:10118C0004229A630123FB7357E07B681B687A681F
:10119C001268126822F00E021A607B681B687A686B
:1011AC001268126822F001021A60264A7B681B68DA
:1011BC001946254B99422ED07B681B681946234B48
:1011CC00994226D07B681B681946214B99421DD049
:1011DC007B681B6819461F4B994214D07B681B68AF
:1011EC0019461D4B99420BD07B681B6819461B4B4B
:1011FC00994202D14FF480130EE04FF080730BE054
:10120C004FF4803308E04FF4805305E04FF48073C3
:10121C0002E0102300E0012353607B68012283F875
:10122C0021207B68002283F820207B685B6B002BDD
:10123C0003D07B685B6B78689847FB7B184610374C
:10124C00BD4680BD00000240080002401C00024068
:10125C003000024044000240580002406C00024042
:10126C0080B485B000AF78607B6803F00703FB6047
:10127C000C4BDB68BB60BA684FF6FF031340BB60D6
:10128C00FB681A02BB68134343F0BF6343F400339B
:10129C00BB60044ABB68D3601437BD465DF8047B61
:1012AC00704700BF00ED00E080B400AF044BDB687A
:1012BC0003F4E0631B0A1846BD465DF8047B7047D7
:1012CC0000ED00E080B483B000AF0346FB71084929
:1012DC0097F907305B09FA7902F01F02012000FA36
:1012EC0002F241F823200C37BD465DF8047B7047B1
:1012FC0000E100E080B483B000AF03463960FB71BD
:10130C0097F90730002B0BDA0D49FB7903F00F032B
:10131C00043B3A68D2B21201D2B20B441A7609E0FD
:10132C00084997F907303A68D2B21201D2B20B448D
:10133C0083F800230C37BD465DF8047B704700BF73
:10134C0000ED00E000E100E080B489B000AFF8608F
:10135C00B9607A60FB6803F00703FB61FB69C3F1BA
:10136C000703042B28BF0423BB61FB690433062B42
:10137C0002D9FB69033B00E000237B61BB690122BE
:10138C0002FA03F35A1EBB681A407B699A407B69C8
:10139C00012101FA03F3591E7B680B4013431846D5
:1013AC002437BD465DF8047B704700BF80B582B022
:1013BC0000AF78607B68013BB3F1807F01D30123E0
:1013CC000FE00A4A7B68013B53604FF0FF300F215E
:1013DC00FFF790FF054B00229A60044B07221A601E
:1013EC00002318460837BD4680BD00BF10E000E062
:1013FC0080B582B000AF78607868FFF731FF0837AE
:10140C00BD4680BD80B586B000AF0346B9607A603A
:10141C00FB7300237B61FFF747FF78617869B9683C
:10142C007A68FFF791FF024697F90F30184611467C
:10143C00FFF760FF1837BD4680BD00BF80B582B096
:10144C0000AF0346FB7197F907301846FFF73AFFD8
:10145C000837BD4680BD00BF80B582B000AF786054
:10146C007868FFF7A3FF034618460837BD4680BDD2
:10147C0080B483B000AF78607B68042B06D1094A36
:10148C00084B1B6843F00403136005E0054A054B49
:10149C001B6823F0040313600C37BD465DF8047B16
:1014AC00704700BF10E000E080B500AF00F002F81C
:1014BC0080BD00BF80B400AFBD465DF8047B7047B3
:1014CC0080B400AF154A154B1B6843F00103136041
:1014DC001249124B5A68124B13404B600F4A0F4B78
:1014EC001B6823F0847323F4803313600B4A0B4B7B
:1014FC001B6823F480231360084A084B5B6823F4B1
:10150C00FE035360054B4FF41F029A60054B4FF0DE
:10151C0000629A60BD465DF8047B70470010024083
:10152C000000FFF800ED00E080B582B000AF7860FD
:10153C007B68002B01D101233FE07B6893F83930A5
:10154C00DBB2002B06D17B68002283F83820786848
:10155C00FEF7E2FF7B68242283F839207B681B6846
:10156C007A681268D26822F40052DA60786800F067
:10157C009BFB7B681B687A681268126922F49042A4
:10158C001A617B681B687A681268526922F02A0219
:10159C005A617B681B687A681268D26842F4005200
:1015AC00DA607B680022DA637B68202283F83920BA
:1015BC007B68202283F83A20002318460837BD4662
:1015CC0080BD00BF80B588B002AFF860B9603B60E9
:1015DC001346FB8000237B61FB6893F83930DBB248
:1015EC00202B40F08280BB68002B02D0FB88002BA4
:1015FC0001D101237AE0FB6893F83830012B01D13B
:10160C00022373E0FB68012283F83820FB68002278
:10161C00DA63FB68212283F83920FFF715F878612B
:10162C00FB68FA889A84FB68FA88DA8441E0FB68E4
:10163C00DB8C9BB2013B9AB2FB68DA84FB689B683B
:10164C00B3F5805F21D13B680093F86880210022BC
:10165C007B6900F0BDF90346002B01D0032345E064
:10166C00BB683B61FB681B683A691288C2F30802CD
:10167C005A60FB681B69002B03D1BB680233BB604B
:10168C0017E0BB680133BB6013E03B680093F8685C
:10169C00802100227B6900F09BF90346002B01D0CE
:1016AC00032323E0FB681A68BB68591CB9601B78DC
:1016BC005360FB68DB8C9BB2002BB8D13B6800936A
:1016CC00F868402100227B6900F082F90346002B68
:1016DC0001D003230AE0FB68202283F83920FB6841
:1016EC00002283F83820002300E002231846183724
:1016FC00BD4680BD80B485B000AFF860B9601346BC
:10170C00FB80FB6893F83A30DBB2202B40D1BB68EE
:10171C00002B02D0FB88002B01D1012339E0FB68A0
:10172C0093F83830012B01D1022332E0FB680122FF
:10173C0083F83820FB68BA689A62FB68FA889A8545
:10174C00FB68FA88DA85FB680022DA63FB682222E0
:10175C0083F83A20FB68002283F83820FB681B686A
:10176C00FA681268D26842F48072DA60FB681B680F
:10177C00FA681268526942F001025A61FB681B68F0
:10178C00FA681268D26842F02002DA60002300E0A6
:10179C00022318461437BD465DF8047B704700BF22
:1017AC0080B588B000AF78607B681B681B68FB61F4
:1017BC007B681B68DB68BB617B681B685B697B6152
:1017CC0000233B610023FB60FB6903F00F033B61CB
:1017DC003B69002B0DD1FB6903F02003002B08D0D3
:1017EC00BB6903F02003002B03D0786800F0DAF912
:1017FC00CAE03B69002B00F0AB807B6903F001036E
:10180C00002B05D1BB6903F49073002B00F0A08072
:10181C00FB6903F00103002B0AD0BB6903F480734E
:10182C00002B05D07B68DB6B43F001027B68DA632D
:10183C00FB6903F00403002B0AD07B6903F001035E
:10184C00002B05D07B68DB6B43F002027B68DA630C
:10185C00FB6903F00203002B0AD07B6903F0010340
:10186C00002B05D07B68DB6B43F004027B68DA63EA
:10187C00FB6903F00803002B0AD07B6903F001031A
:10188C00002B05D07B68DB6B43F008027B68DA63C6
:10189C007B68DB6B002B5AD0FB6903F02003002B19
:1018AC0007D0BB6903F02003002B02D0786800F04E
:1018BC0079F97B681B685B6903F04003002B14BF4C
:1018CC0001230023DBB2FB607B68DB6B03F00803B6
:1018DC00002B02D1FB68002B32D0786800F0C2F8E4
:1018EC007B681B685B6903F04003002B23D07B688B
:1018FC001B687A681268526922F040025A617B6850
:10190C005B6B002B13D07B685B6B214A5A637B6843
:10191C005B6B1846FFF728FC0346002B0FD07B6847
:10192C005B6B5B6B7A68526B1046984707E0786884
:10193C0000F044F80BE0786800F040F807E006E0AF
:10194C00786800F03BF87B680022DA631CE01BE04F
:10195C00FB6903F08003002B08D0BB6903F0800304
:10196C00002B03D0786800F0AFF80DE0FB6903F0B2
:10197C004003002B08D0BB6903F04003002B03D0BD
:10198C00786800F0F7F800BF2037BD4680BD00BF77
:10199C00AD1A000880B483B000AF78600C37BD4638
:1019AC005DF8047B704700BF80B483B000AF7860F3
:1019BC000C37BD465DF8047B704700BF80B483B024
:1019CC0000AF78600C37BD465DF8047B704700BFF4
:1019DC0080B584B000AFF860B9603B601346FB7112
:1019EC002CE0BB69B3F1FF3F28D0BB69002B07D0BB
:1019FC00FEF72AFE02463B68D21ABB699A421DD9F1
:101A0C00FB681B68FA681268D26822F4D072DA603C
:101A1C00FB681B68FA681268526922F001025A616D
:101A2C00FB68202283F83920FB68202283F83A20B7
:101A3C00FB68002283F8382003230FE0FB681B6847
:101A4C001A68BB681A40BB689A420CBF012300237A
:101A5C00DBB21A46FB799A42C3D0002318461037E2
:101A6C00BD4680BD80B483B000AF78607B681B68D6
:101A7C007A681268D26822F49072DA607B681B680C
:101A8C007A681268526922F001025A617B6820223E
:101A9C0083F83A200C37BD465DF8047B704700BFD5
:101AAC0080B584B000AF78607B685B6AFB60FB68D4
:101ABC000022DA85FB680022DA84F868FFF77EFFE3
:101ACC001037BD4680BD00BF80B485B000AF7860D4
:101ADC007B6893F83930DBB2212B43D17B689B6850
:101AEC00B3F5805F19D17B681B6AFB607B681B6850
:101AFC00FA681288C2F308025A607B681B69002BD3
:101B0C0005D17B681B6A9A1C7B681A620EE07B68A5
:101B1C001B6A5A1C7B681A6208E07B681A687B682F
:101B2C001B6A581C796808621B7853607B68DB8CD5
:101B3C009BB2013B9BB27A681946D184002B0FD122
:101B4C007B681B687A681268D26822F08002DA60BF
:101B5C007B681B687A681268D26842F04002DA60CF
:101B6C00002300E0022318461437BD465DF8047BC1
:101B7C00704700BF80B582B000AF78607B681B688F
:101B8C007A681268D26822F04002DA607B68202200
:101B9C0083F839207868FFF7FDFE002318460837D4
:101BAC00BD4680BD80B584B000AF78607B6893F88B
:101BBC003A30DBB2222B71D17B689B68B3F5805F26
:101BCC0023D17B689B6AFB607B681B69002B0ED161
:101BDC007B681B685B689BB2C3F308039AB2FB6813
:101BEC001A807B689B6A9A1C7B689A6229E07B68E6
:101BFC001B685B689BB2DBB29AB2FB681A807B688D
:101C0C009B6A5A1C7B689A621BE07B681B69002BE1
:101C1C000AD17B689B6A591C7A6891627A6812684F
:101C2C005268D2B21A700CE07B689B6A591C7A68B5
:101C3C0091627A6812685268D2B202F07F02D2B214
:101C4C001A707B68DB8D9BB2013B9BB27A6819469C
:101C5C00D185002B20D17B681B687A681268D2680A
:101C6C0022F02002DA607B681B687A681268D268FE
:101C7C0022F48072DA607B681B687A681268526999
:101C8C0022F001025A617B68202283F83A2078689E
:101C9C00FFF78AFE002302E0002300E0022318462F
:101CAC001037BD4680BD00BFF0B585B000AF786081
:101CBC000023FB607B681B687A681268126922F447
:101CCC0040517A68D2680A431A617B689A687B68CB
:101CDC001B691A437B685B691343FA681343FB6007
:101CEC007B681A687B681B68DB6823F4B05323F0AD
:101CFC000C03F9680B43D3607B681B687A68126825
:101D0C00526922F440717A6892690A435A617B687D
:101D1C001B686E4A93426BD17B681C68FFF77CF89A
:101D2C00024613469B0013449A001A447B685B6876
:101D3C009B00B2FBF3F3664AA2FB03235B091D0174
:101D4C00FFF76AF8024613469B0013449A001A44A4
:101D5C007B685B689B00B2FBF3F6FFF75DF802460D
:101D6C0013469B0013449A001A447B685B689B00E3
:101D7C00B2FBF3F3564AA2FB03235B09642202FB7A
:101D8C0003F3F31A1B013233514AA2FB03235B0901
:101D9C0003F0F0031D44FFF73FF8024613469B0087
:101DAC0013449A001A447B685B689B00B2FBF3F601
:101DBC00FFF732F8024613469B0013449A001A446C
:101DCC007B685B689B00B2FBF3F3414AA2FB0323E5
:101DDC005B09642202FB03F3F31A1B0132333C4A06
:101DEC00A2FB03235B0903F00F032B44A3606AE0FF
:101DFC007B681C68FEF7FCFF024613469B001344ED
:101E0C009A001A447B685B689B00B2FBF3F3304A80
:101E1C00A2FB03235B091D01FEF7EAFF02461346F2
:101E2C009B0013449A001A447B685B689B00B2FBCE
:101E3C00F3F6FEF7DDFF024613469B0013449A00AF
:101E4C001A447B685B689B00B2FBF3F3204AA2FB4D
:101E5C0003235B09642202FB03F3F31A1B013233E5
:101E6C001B4AA2FB03235B0903F0F0031D44FEF79E
:101E7C00BFFF024613469B0013449A001A447B682A
:101E8C005B689B00B2FBF3F6FEF7B2FF024613460B
:101E9C009B0013449A001A447B685B689B00B2FB5E
:101EAC00F3F30B4AA2FB03235B09642202FB03F34B
:101EBC00F31A1B013233064AA2FB03235B0903F01E
:101ECC000F032B44A3601437BD46F0BD003801400E
:101EDC001F85EB51002103E00B4B5B584350043141
:101EEC000A480B4B42189A42F6D30A4A02E00023E6
:101EFC0042F8043B084B9A42F9D3FFF7E1FA00F0A1
:101F0C000FF8FEF74FF97047D81F000800000020AB
:101F1C00100000201000002074000020FEE70000DC
:101F2C000E4B70B51E460E4C0025E41AA410A542AB
:101F3C0004D056F8253098470135F8E700F016F82C
:101F4C00084B094C1E46E41AA4100025A54204D0E7
:101F5C0056F8253098470135F8E770BDD01F0008BA
:101F6C00D01F0008D01F0008D41F0008F8B500BF10
:101F7C00F8BC08BC9E467047F8B500BFF8BC08BC5E
:041F8C009E467047B6
:101F900048656C6C6F0000005372632F6D61696E51
:101FA0002E63000002030405060708090A0B0C0D46
:101FB0000E0F1010010200000000000000000000E1
:101FC00001020304060708090000000001020304DF
:041FD000790100088B
:041FD40051010008AF
:101FD80001000000100000000100000000A24A04F7
:0400000508001EE1F0
:00000001FF
