:020000040800F2
:1000000000500020C5120008AD030008B903000825
:10001000C1030008C9030008D10300080000000064
:10002000000000000000000000000000D9030008EC
:10003000E503000800000000F1030008FD030008CC
:100040000D1300080D1300080D1300080D13000810
:100050000D1300080D1300080D1300080D13000800
:100060000D1300080D1300080D1300080D130008F0
:100070000D1300080D1300080D1300080D130008E0
:100080000D1300080D1300080D1300080D130008D0
:100090000D1300080D1300080D1300080D130008C0
:1000A0000D1300080D1300080D1300080D130008B0
:1000B0000D1300080D1300080D1300080D130008A0
:1000C0000D1300080D1300080D1300080D13000890
:1000D0000D1300080D1300080D1300080D13000880
:1000E0000D1300080D1300080D1300080000000098
:1000F0000000000000000000000000000000000000
:0C01000000000000000000005FF808F1A3
:10010C00044B05481B1A062B02D9044B03B11847A4
:10011C00704700BF130000201000002000000000FA
:10012C0005490648091A891001EBD171491002D012
:10013C00034B03B11847704710000020100000203B
:10014C000000000010B5064C237843B9FFF7D8FF28
:10015C00044B13B10448AFF300800123237010BD8E
:10016C0010000020000000005C13000808B5084BCC
:10017C001BB108480849AFF300800848036813B95D
:10018C00BDE80840CCE7064B002BF9D09847F7E7C1
:10019C00000000005C130008140000201000002078
:1001AC000000000080B500AF00F088F900F03CF8CA
:1001BC0000F08AF8174B9B6803F00103002B0AD15F
:1001CC00154B1B78002B06D0144B1B7883F00103C6
:1001DC00DAB2124B1A700F4B9B68DBB203F00103BF
:1001EC00DAB20D4B1A700D4B1B78002B11D10C4A47
:1001FC000B4B1B6943F4005313610A4800F0B6F82B
:10020C00074A074B1B6943F000531361054800F084
:10021C00ADF8CFE7000801400000002001000020ED
:10022C000010014020A1070080B590B000AF012361
:10023C00BB614FF48033FB6100233B620123BB6243
:10024C0002237B634FF48033BB634FF4E013FB63F7
:10025C0007F11803184600F095F90346002B03D05C
:10026C001748922100F096F80F237B600223BB60A5
:10027C008023FB6000233B6100237B613B1D184600
:10028C00022100F0E1FB0346002B03D00C48A02117
:10029C0000F080F800F032FD02460A4BA3FB02236B
:1002AC009B09184600F0A0FF042000F0A9FF4FF0B6
:1002BC00FF300021002200F07BFF4037BD4680BD9F
:1002CC0074130008D34D621080B588B000AF244A77
:1002DC00234B9B6943F010039361214B9B6903F003
:1002EC001003FB60FB681E4A1D4B9B6943F0200307
:1002FC0093611B4B9B6903F02003BB60BB68184ADE
:10030C00174B9B6943F004039361154B9B6903F0F6
:10031C0004037B607B6813484FF40051012200F00A
:10032C0075FE4FF400533B6101237B610023BB61DD
:10033C000223FB6107F110030A48194600F008FD7F
:10034C0001233B6100237B610123BB6107F1100397
:10035C000548194600F0FCFC2037BD4680BD00BFA7
:10036C0000100240001001400008014080B485B02C
:10037C0000AF78600023FB6003E000BFFB68013333
:10038C00FB60FA687B689A42F7D31437BD465DF878
:10039C00047B704780B483B000AF78603960FEE7AF
:1003AC0080B400AFBD465DF8047B704780B400AFED
:1003BC00FEE700BF80B400AFFEE700BF80B400AF23
:1003CC00FEE700BF80B400AFFEE700BF80B400AF13
:1003DC00BD465DF8047B704780B400AFBD465DF848
:1003EC00047B704780B400AFBD465DF8047B70475A
:1003FC0080B500AF00F0A8F800F01EFF80BD00BF74
:10040C0080B584B000AF2B4A2A4B9B6943F00103A3
:10041C009361284B9B6903F00103BB60BB68254AC1
:10042C00244BDB6943F08053D361224BDB6903F02F
:10043C0080537B607B68032000F0B0FE6FF00B00F4
:10044C000021002200F0B4FE6FF00A00002100220F
:10045C0000F0AEFE6FF009000021002200F0A8FEB3
:10046C006FF004000021002200F0A2FE6FF00300E8
:10047C000021002200F09CFE6FF001000021002200
:10048C0000F096FE4FF0FF300021002200F090FEAD
:10049C00094B5B68FB60FB6823F0E063FB60FB6867
:1004AC0043F08063FB60044AFB6853601037BD4621
:1004BC0080BD00BF001002400000014080B500AFBD
:1004CC00084A084B1B6843F010031360032000F02C
:1004DC0065FE002000F008F8FFF792FF0023184695
:1004EC0080BD00BF0020024080B582B000AF7860B4
:1004FC00124B1A68124B1B7819464FF47A73B3FBE4
:10050C00F1F3B2FBF3F3184600F06EFE0346002B3A
:10051C0001D001230EE07B680F2B0AD84FF0FF307F
:10052C007968002200F044FE064A7B6813600023C1
:10053C0000E0012318460837BD4680BD0C000020A2
:10054C00080000200400002080B400AF054B1B788D
:10055C001A46054B1B681344034A1360BD465DF8ED
:10056C00047B7047080000202C00002080B400AFF2
:10057C00034B1B681846BD465DF8047B704700BFF3
:10058C002C00002080B586B000AF786000233B6162
:10059C007B681B6803F00103002B00F08580914BF6
:1005AC005B6803F00C03042B0BD08E4B5B6803F0E1
:1005BC000C03082B12D18B4B5B6803F48033002B9C
:1005CC000CD0884B1B6803F40033002B05D07B68E0
:1005DC005B68002B01D101232CE265E07B685B6832
:1005EC00B3F5803F06D17F4A7E4B1B6843F48033C2
:1005FC0013602EE07B685B68002B0CD1794A794B39
:10060C001B6823F480331360764A764B1B6823F403
:10061C00802313601DE07B685B68B3F5A02F0CD1C1
:10062C00704A704B1B6843F4802313606D4A6D4B0A
:10063C001B6843F4803313600BE06A4A694B1B68F8
:10064C0023F480331360674A664B1B6823F48023C2
:10065C0013607B685B68002B13D0FFF787FF386152
:10066C0008E0FFF783FF02463B69D31A642B01D9DC
:10067C000323DFE15B4B1B6803F40033002BF0D04A
:10068C0012E0FFF773FF386108E0FFF76FFF0246D7
:10069C003B69D31A642B01D90323CBE1514B1B6863
:1006AC0003F40033002BF0D17B681B6803F00203CA
:1006BC00002B63D04B4B5B6803F00C03002B0BD06F
:1006CC00484B5B6803F00C03082B1CD1454B5B6853
:1006DC0003F48033002B16D1424B1B6803F002034A
:1006EC00002B05D07B681B69012B01D00123A1E1F4
:1006FC003C493C4B1B6823F0F8027B685B69DB00D0
:10070C0013430B603AE07B681B69002B20D0364BFF
:10071C0001221A60FFF72AFF386108E0FFF726FF75
:10072C0002463B69D31A022B01D9032382E12D4BDC
:10073C001B6803F00203002BF0D02A49294B1B68DD
:10074C0023F0F8027B685B69DB0013430B6015E058
:10075C00254B00221A60FFF709FF386108E0FFF70C
:10076C0005FF02463B69D31A022B01D9032361E131
:10077C001C4B1B6803F00203002BF0D17B681B6839
:10078C0003F00803002B39D07B689B69002B19D030
:10079C00164B01221A60FFF7E9FE386108E0FFF7FB
:1007AC00E5FE02463B69D31A022B01D9032341E132
:1007BC000C4B5B6A03F00203002BF0D0012000F01D
:1007CC00A9FA1BE0094B00221A60FFF7CFFE386133
:1007DC000EE0FFF7CBFE02463B69D31A022B07D97A
:1007EC00032327E1001002400000424280044242F1
:1007FC00924B5B6A03F00203002BEAD17B681B6807
:10080C0003F00403002B00F0A6800023FB758B4B38
:10081C00DB6903F08053002B0DD1884A874BDB69D1
:10082C0043F08053D361854BDB6903F08053FB604D
:10083C00FB680123FB75824B1B6803F48073002B50
:10084C0018D17F4A7E4B1B6843F480731360FFF70B
:10085C008DFE386108E0FFF789FE02463B69D31A2A
:10086C00642B01D90323E5E0754B1B6803F48073FB
:10087C00002BF0D07B68DB68012B06D16F4A6F4BE5
:10088C001B6A43F0010313622DE07B68DB68002BCD
:10089C000CD16A4A694B1B6A23F001031362674A45
:1008AC00664B1B6A23F0040313621CE07B68DB6855
:1008BC00052B0CD1614A614B1B6A43F00403136294
:1008CC005E4A5E4B1B6A43F0010313620BE05B4A0A
:1008DC005A4B1B6A23F001031362584A574B1B6A8D
:1008EC0023F0040313627B68DB68002B15D0FFF741
:1008FC003DFE38610AE0FFF739FE02463B69D31A28
:10090C0041F28832934201D9032393E04B4B1B6A8B
:10091C0003F00203002BEED014E0FFF727FE386142
:10092C000AE0FFF723FE02463B69D31A41F28832F4
:10093C00934201D903237DE0404B1B6A03F0020371
:10094C00002BEED1FB7D012B05D13C4A3B4BDB69E7
:10095C0023F08053D3617B68DB69002B69D0374B64
:10096C005B6803F00C03082B61D07B68DB69022BFE
:10097C0046D1344B00221A60FFF7F8FD386108E0CD
:10098C00FFF7F4FD02463B69D31A022B01D903236E
:10099C0050E02A4B1B6803F00073002BF0D17B68EE
:1009AC001B6AB3F5803F08D12449244B5B6823F4C0
:1009BC0000327B689B6813434B6020481F4B5B687D
:1009CC0023F474127B68196A7B685B6A0B431343CC
:1009DC0043601C4B01221A60FFF7C8FD386108E028
:1009EC00FFF7C4FD02463B69D31A022B01D903233E
:1009FC0020E0124B1B6803F00073002BF0D018E0C2
:100A0C00104B00221A60FFF7B1FD386108E0FFF7C8
:100A1C00ADFD02463B69D31A022B01D9032309E031
:100A2C00064B1B6803F00073002BF0D101E001238F
:100A3C0000E0002318461837BD4680BD0010024068
:100A4C00007000406000424280B584B000AF786016
:100A5C0039600023FB60734B1B6803F007023B6893
:100A6C009A4210D26F496F4B1B6823F007023B6808
:100A7C0013430B606B4B1B6803F007023B689A42F5
:100A8C0001D00123C9E07B681B6803F00203002B33
:100A9C0008D06549644B5B6823F0F0027B689B6867
:100AAC0013434B607B681B6803F00103002B6BD076
:100ABC007B685B68012B07D15B4B1B6803F400332D
:100ACC00002B15D10123A8E07B685B68022B07D1B2
:100ADC00554B1B6803F00073002B09D101239CE0DC
:100AEC00514B1B6803F00203002B01D1012394E04E
:100AFC004D494D4B5B6823F003027B685B681343E5
:100B0C004B60FFF733FDF8607B685B68012B12D1FB
:100B1C000AE0FFF72BFD0246FB68D31A41F288323C
:100B2C00934201D9032378E03F4B5B6803F00C033D
:100B3C00042BEED128E07B685B68022B12D10AE013
:100B4C00FFF714FD0246FB68D31A41F28832934238
:100B5C0001D9032361E0344B5B6803F00C03082BD1
:100B6C00EED111E00AE0FFF701FD0246FB68D31A53
:100B7C0041F28832934201D903234EE02A4B5B6841
:100B8C0003F00C03002BEED1264B1B6803F007027D
:100B9C003B689A4210D92349224B1B6823F0070269
:100BAC003B6813430B601F4B1B6803F007023B6849
:100BBC009A4201D0012330E07B681B6803F00403E8
:100BCC00002B08D01849184B5B6823F4E0627B6853
:100BDC00DB6813434B607B681B6803F00803002B36
:100BEC0009D01149104B5B6823F460527B681B6978
:100BFC00DB0013434B6000F01DF801460A4B5B68A9
:100C0C0003F0F0031B09094AD35C21FA03F3084AE9
:100C1C0013600020FFF768FC002318461037BD4610
:100C2C0080BD00BF00200240001002409413000859
:100C3C000C00002090B48AB000AF2B4B3C1D186800
:100C4C0059689A68DB680FC4284A3B4612881A8098
:100C5C000023FB610023BB6100237B6200237B61CB
:100C6C0000233B62224B5B68FB61FB6903F00C03C6
:100C7C00042B02D0082B03D02DE01E4B3B622DE041
:100C8C00FB6903F470139B0C07F12802134413F84F
:100C9C00243C7B61FB6903F48033002B13D0144B91
:100CAC005B6803F400335B0C07F12802134413F860
:100CBC00283CBB617B690F4A02FB03F2BB69B2FBA8
:100CCC00F3F37B6204E07B690B4A02FB03F37B6268
:100CDC007B6A3B6202E0074B3B6200BF3B6A1846F3
:100CEC002837BD4690BC704780130008901300084D
:100CFC000010024000127A0000093D0080B400AFE1
:100D0C00034B1B681846BD465DF8047B704700BF5B
:100D1C000C00002080B485B000AF78600A4B1B68D3
:100D2C000A4AA2FB03235B0A7A6802FB03F3FB600B
:100D3C0000BFFB685A1EFA60002BF9D11437BD4670
:100D4C005DF8047B704700BF0C000020D34D62108F
:100D5C0080B48BB000AF786039600023FB61002356
:100D6C00BB6100237B6100233B6200233B610023BA
:100D7C007B6228E17B6A012202FA03F3FB613B6888
:100D8C001A68FB691340BB61BA69FB699A4240F06F
:100D9C0017813B685B68122B34D0122B0DD8022BB9
:100DAC002BD0022B04D8002B31D0012B1CD049E0C6
:100DBC00032B44D0112B1BD044E0874A934226D0FE
:100DCC00854A934206D8854A934220D0844A93425E
:100DDC001DD037E0834A934219D0834A934216D0F0
:100DEC00824A934213D02DE03B68DB683B6229E0DA
:100DFC003B68DB6804333B6224E03B68DB68083308
:100E0C003B621FE03B68DB680C333B621AE03B68DB
:100E1C009B68002B02D104233B620FE03B689B686C
:100E2C00012B05D108233B627B68FA691A6105E046
:100E3C0008233B627B68FA695A6103E002E00023F5
:100E4C003B6200BFBB69FF2B01D87B6801E07B686C
:100E5C000433FB60BB69FF2B02D87B6A9B0002E06A
:100E6C007B6A083B9B003B61FB681A683B690F215E
:100E7C0001FA03F3DB431A403B69396A01FA03F3C5
:100E8C001A43FB681A603B685B6803F08053002BC5
:100E9C0000F09680564A564B9B6943F001039361D0
:100EAC00534B9B6903F00103BB60BB68514A7B6ADF
:100EBC009B08023352F823307B617B6A03F00303F7
:100ECC009B001A460F239340DB437A6913407B61E6
:100EDC007B68494A934213D07B68484A93420DD0B1
:100EEC007B68474A934207D07B68464A934201D1BC
:100EFC00032306E0042304E0022302E0012300E0C4
:100F0C0000237A6A02F00302920093407A69134339
:100F1C007B6138497B6A9B0802337A6941F823204C
:100F2C003B685B6803F48033002B06D03649364BA4
:100F3C001A68BB6913430B6006E03349324B1A68DD
:100F4C00BB69DB4313400B603B685B6803F4003305
:100F5C00002B06D02C492C4B5A68BB6913434B60B1
:100F6C0006E02949284B5A68BB69DB4313404B60A8
:100F7C003B685B6803F48013002B06D02249224B9C
:100F8C009A68BB6913438B6006E01F491E4B9A6835
:100F9C00BB69DB4313408B603B685B6803F4001355
:100FAC00002B06D01849184BDA68BB691343CB6089
:100FBC0006E01549144BDA68BB69DB431340CB6080
:100FCC007B6A01337B627B6A0F2B7FF6D3AE2C37A7
:100FDC00BD465DF8047B7047000021100000111025
:100FEC00000012100000311000003210000022101E
:100FFC00001002400000014000080140000C0140BC
:10100C0000100140001401400004014080B483B082
:10101C0000AF78600B467B8013467B707B78002B8F
:10102C0003D07A887B681A6103E07B881A047B689A
:10103C001A610C37BD465DF8047B704780B485B0EF
:10104C0000AF78607B6803F00703FB600C4BDB6838
:10105C00BB60BA684FF6FF031340BB60FB681A0213
:10106C00BB68134343F0BF6343F40033BB60044AD3
:10107C00BB68D3601437BD465DF8047B704700BF76
:10108C0000ED00E080B400AF044BDB6803F4E063D8
:10109C001B0A1846BD465DF8047B704700ED00E066
:1010AC0080B483B000AF03463960FB7197F9073009
:1010BC00002B0BDA0D49FB7903F00F03043B3A6864
:1010CC00D2B21201D2B20B441A7609E0084997F950
:1010DC0007303A68D2B21201D2B20B4483F8002323
:1010EC000C37BD465DF8047B704700BF00ED00E097
:1010FC0000E100E080B489B000AFF860B9607A60BC
:10110C00FB6803F00703FB61FB69C3F10703042BC6
:10111C0028BF0423BB61FB690433062B02D9FB698E
:10112C00033B00E000237B61BB69012202FA03F35D
:10113C005A1EBB681A407B699A407B69012101FAEF
:10114C0003F3591E7B680B40134318462437BD46E6
:10115C005DF8047B704700BF80B582B000AF78604B
:10116C007B68013BB3F1807F01D301230FE00A4A76
:10117C007B68013B53604FF0FF300F21FFF790FF6E
:10118C00054B00229A60044B07221A600023184674
:10119C000837BD4680BD00BF10E000E080B582B0CE
:1011AC0000AF78607868FFF749FF0837BD4680BD0F
:1011BC0080B586B000AF0346B9607A60FB7300233C
:1011CC007B61FFF75FFF78617869B9687A68FFF730
:1011DC0091FF024697F90F3018461146FFF760FF52
:1011EC001837BD4680BD00BF80B582B000AF7860B7
:1011FC007868FFF7B1FF034618460837BD4680BD37
:10120C0080B483B000AF78607B68042B06D1094AA8
:10121C00084B1B6843F00403136005E0054A054BBB
:10122C001B6823F0040313600C37BD465DF8047B88
:10123C00704700BF10E000E080B500AF00F002F88E
:10124C0080BD00BF80B400AFBD465DF8047B704725
:10125C0080B400AF154A154B1B6843F001031360B3
:10126C001249124B5A68124B13404B600F4A0F4BEA
:10127C001B6823F0847323F4803313600B4A0B4BED
:10128C001B6823F480231360084A084B5B6823F423
:10129C00FE035360054B4FF41F029A60054B4FF051
:1012AC0000629A60BD465DF8047B704700100240F6
:1012BC000000FFF800ED00E0002103E00B4B5B5851
:1012CC00435004310A480B4B42189A42F6D30A4A4F
:1012DC0002E0002342F8043B084B9A42F9D3FFF793
:1012EC00B7FF00F00FF8FEF75DFF7047AC13000876
:1012FC000000002010000020100000203000002012
:10130C00FEE700000E4B70B51E460E4C0025E41A8D
:10131C00A410A54204D056F8253098470135F8E7BB
:10132C0000F016F8084B094C1E46E41AA4100025D0
:10133C00A54204D056F8253098470135F8E770BD22
:10134C00A4130008A4130008A4130008A813000891
:10135C00F8B500BFF8BC08BC9E467047F8B500BF96
:08136C00F8BC08BC9E46704766
:101374005372632F6D61696E2E63000002030405CE
:10138400060708090A0B0C0D0E0F101001020000CD
:101394000000000000000000010203040607080921
:0413A40079010008C3
:0413A80051010008E7
:1013AC0001010000100000000100000000A24A042E
:04000005080012C518
:00000001FF
