:020000040800F2
:10000000005000201D260008210400082D040008CF
:10001000350400083D040008450400080000000005
:100020000000000000000000000000004D04000877
:10003000590400080000000065040008710400086D
:100040006526000865260008652600086526000864
:1000500065260008652600088D040008652600084E
:100060006526000865260008652600086526000844
:100070006526000865260008B1040008C1040008D0
:100080006526000865260008652600086526000824
:100090006526000865260008652600086526000814
:1000A0006526000865260008652600086526000804
:1000B00065260008652600086526000865260008F4
:1000C00065260008652600086526000865260008E4
:1000D00065260008ED04000865260008652600086E
:1000E0006526000865260008652600080000000057
:1000F0000000000000000000000000000000000000
:0C01000000000000000000005FF808F1A3
:10010C00044B05481B1A062B02D9044B03B11847A4
:10011C00704700BF130000201000002000000000FA
:10012C0005490648091A891001EBD171491002D012
:10013C00034B03B11847704710000020100000203B
:10014C000000000010B5064C237843B9FFF7D8FF28
:10015C00044B13B10448AFF300800123237010BD8E
:10016C001000002000000000B426000808B5084B61
:10017C001BB108480849AFF300800848036813B95D
:10018C00BDE80840CCE7064B002BF9D09847F7E7C1
:10019C0000000000B426000814000020100000200D
:1001AC000000000080B582B000AF154A3B4692E8D3
:1001BC00030018600433198000F094FA00F028F85A
:1001CC0000F076F800F0FCF800F0CEF80D480E497F
:1001DC00012201F0EFFC0B480B49012201F05AFD02
:1001EC00094B1B78DBB2012B05D1084A074BDB68A6
:1001FC0083F40053D3604FF47A7000F0D7FAEFE732
:10020C00CC260008B800002000000020001001409F
:10021C0080B590B000AF0123BB614FF48033FB611C
:10022C0000233B620123BB6202237B634FF48033C8
:10023C00BB634FF4E013FB6307F11803184600F09F
:10024C00D7FA0346002B03D01748722100F0DCF8D4
:10025C000F237B600223BB608023FB6000233B6188
:10026C0000237B613B1D1846022100F023FD034651
:10027C00002B03D00C48802100F0C6F800F074FE6F
:10028C0002460A4BA3FB02239B09184601F0DCFB38
:10029C00042001F0E5FB4FF0FF300021002201F0BB
:1002AC00A9FB4037BD4680BDD4260008D34D621053
:1002BC0080B588B000AF284A274B9B6943F01003E8
:1002CC009361254B9B6903F01003FB60FB68224A8A
:1002DC00214B9B6943F0200393611F4B9B6903F0F7
:1002EC002003BB60BB681C4A1B4B9B6943F0040397
:1002FC009361194B9B6903F004037B607B6817487F
:10030C004FF40051012200F0DFFF4FF400533B612A
:10031C0001237B610023BB610223FB6107F1100306
:10032C000E48194600F072FE01233B610C4B7B61B9
:10033C000023BB6107F110030A48194600F066FE62
:10034C0006200021002201F055FB062001F06EFB77
:10035C002037BD4680BD00BF001002400010014098
:10036C00000021100008014080B500AF114B124A6B
:10037C001A60104B4FF4E1325A600E4B00229A6017
:10038C000C4B0022DA600B4B00221A61094B0C2239
:10039C005A61084B00229A61064B0022DA6105482B
:1003AC0001F0BAFB0346002B03D00448BC2100F03B
:1003BC002BF880BDB800002000380140D42600087E
:1003CC0080B582B000AF0F4A0E4B5B6943F001035E
:1003DC0053610C4B5B6903F001037B607B680E205F
:1003EC000021002201F006FB0E2001F01FFB0F2064
:1003FC000021002201F0FEFA0F2001F017FB083754
:10040C00BD4680BD0010024080B483B000AF786060
:10041C003960FEE780B400AFBD465DF8047B7047E1
:10042C0080B400AFFEE700BF80B400AFFEE700BFB2
:10043C0080B400AFFEE700BF80B400AFFEE700BFA2
:10044C0080B400AFBD465DF8047B704780B400AF4C
:10045C00BD465DF8047B704780B400AFBD465DF8C7
:10046C00047B704780B500AF00F082F901F014FBFB
:10047C00024B1B680133014A136080BD2C00002025
:10048C0080B500AF012000F037FF044B9B68044897
:10049C001946012201F08EFB80BD00BF10E000E088
:1004AC00B800002080B500AF014801F08BF880BD8A
:1004BC003000002080B500AF064801F083F80648F4
:1004CC000649012201F076FB03480449012201F0A0
:1004DC00E1FB80BD74000020B8000020000000206B
:1004EC0080B500AF014801F057FC80BDB80000207A
:1004FC0080B584B000AF2B4A2A4B9B6943F00103B3
:10050C009361284B9B6903F00103BB60BB68254AD0
:10051C00244BDB6943F08053D361224BDB6903F03E
:10052C0080537B607B68032001F05AFA6FF00B005C
:10053C000021002201F05EFA6FF00A000021002277
:10054C0001F058FA6FF009000021002201F052FA74
:10055C006FF004000021002201F04CFA6FF0030050
:10056C000021002201F046FA6FF001000021002268
:10057C0001F040FA4FF0FF300021002201F03AFA6E
:10058C00094B5B68FB60FB6823F0E063FB60FB6876
:10059C0043F08063FB60044AFB6853601037BD4630
:1005AC0080BD00BF001002400000014080B588B043
:1005BC0000AF78607B681B68424A93427FD1424A05
:1005CC00414B9B6943F4804393613F4B9B6903F41C
:1005DC008043FB60FB684FF400733B6102237B613B
:1005EC000323FB6107F110033848194600F00EFD98
:1005FC004FF480633B6100237B610023BB6107F1F7
:10060C0010033248194600F001FD314B314A1A6093
:10061C002F4B10225A602E4B00229A602C4B8022BA
:10062C00DA602B4B00221A61294B00225A61284BAD
:10063C0000229A61264B4FF48052DA61244800F074
:10064C007DFE0346002B03D023487F21FFF7DCFE01
:10065C007B681F4A1A631E4A7B6853621F4B204AF1
:10066C001A601E4B00225A601C4B00229A601B4BD6
:10067C008022DA60194B00221A61184B00225A6151
:10068C00164B00229A61154B4FF48052DA611348D5
:10069C0000F054FE0346002B03D00F488F21FFF7C8
:1006AC00B3FE7B680D4A5A630C4A7B685362252063
:1006BC000021002201F09EF9252001F0B7F9203726
:1006CC00BD4680BD003801400010024000080140CA
:1006DC003000002044000240E02600087400002096
:1006EC005800024080B500AF084A084B1B6843F025
:1006FC0010031360032001F073F9002000F008F8D8
:10070C00FFF7F6FE0023184680BD00BF0020024014
:10071C0080B582B000AF7860124B1A68124B1B7810
:10072C0019464FF47A73B3FBF1F3B2FBF3F31846AB
:10073C0001F08AF90346002B01D001230EE07B68FF
:10074C000F2B0AD84FF0FF307968002201F052F9D4
:10075C00064A7B681360002300E001231846083723
:10076C00BD4680BD0C0000200800002004000020C5
:10077C0080B400AF054B1B781A46054B1B6813441D
:10078C00034A1360BD465DF8047B704708000020E7
:10079C00F800002080B400AF034B1B681846BD4620
:1007AC005DF8047B704700BFF800002080B584B072
:1007BC0000AF7860FFF7EEFFB8607B68FB60FB680A
:1007CC00B3F1FF3F05D0094B1B781A46FB68134465
:1007DC00FB6000BFFFF7DEFF0246BB68D21AFB6866
:1007EC009A42F7D31037BD4680BD00BF08000020E9
:1007FC0080B586B000AF786000233B617B681B68D6
:10080C0003F00103002B00F08580914B5B6803F033
:10081C000C03042B0BD08E4B5B6803F00C03082BE2
:10082C0012D18B4B5B6803F48033002B0CD0884BBC
:10083C001B6803F40033002B05D07B685B68002B2E
:10084C0001D101232CE265E07B685B68B3F5803F46
:10085C0006D17F4A7E4B1B6843F4803313602EE035
:10086C007B685B68002B0CD1794A794B1B6823F4AD
:10087C0080331360764A764B1B6823F48023136015
:10088C001DE07B685B68B3F5A02F0CD1704A704BF0
:10089C001B6843F4802313606D4A6D4B1B6843F453
:1008AC00803313600BE06A4A694B1B6823F4803376
:1008BC001360674A664B1B6823F4802313607B68C4
:1008CC005B68002B13D0FFF765FF386108E0FFF77A
:1008DC0061FF02463B69D31A642B01D90323DFE184
:1008EC005B4B1B6803F40033002BF0D012E0FFF7D6
:1008FC0051FF386108E0FFF74DFF02463B69D31A00
:10090C00642B01D90323CBE1514B1B6803F4003357
:10091C00002BF0D17B681B6803F00203002B63D023
:10092C004B4B5B6803F00C03002B0BD0484B5B6804
:10093C0003F00C03082B1CD1454B5B6803F480338C
:10094C00002B16D1424B1B6803F00203002B05D081
:10095C007B681B69012B01D00123A1E13C493C4B75
:10096C001B6823F0F8027B685B69DB0013430B60A8
:10097C003AE07B681B69002B20D0364B01221A60B1
:10098C00FFF708FF386108E0FFF704FF02463B69F8
:10099C00D31A022B01D9032382E12D4B1B6803F0E0
:1009AC000203002BF0D02A49294B1B6823F0F802D4
:1009BC007B685B69DB0013430B6015E0254B002261
:1009CC001A60FFF7E7FE386108E0FFF7E3FE024626
:1009DC003B69D31A022B01D9032361E11C4B1B6821
:1009EC0003F00203002BF0D17B681B6803F00803B3
:1009FC00002B39D07B689B69002B19D0164B012238
:100A0C001A60FFF7C7FE386108E0FFF7C3FE024625
:100A1C003B69D31A022B01D9032341E10C4B5B6ACE
:100A2C0003F00203002BF0D0012000F0D1FA1BE000
:100A3C00094B00221A60FFF7ADFE38610EE0FFF79C
:100A4C00A9FE02463B69D31A022B07D9032327E1DF
:100A5C00001002400000424280044242924B5B6A0A
:100A6C0003F00203002BEAD17B681B6803F004033C
:100A7C00002B00F0A6800023FB758B4BDB6903F089
:100A8C008053002B0DD1884A874BDB6943F0805390
:100A9C00D361854BDB6903F08053FB60FB6801235A
:100AAC00FB75824B1B6803F48073002B18D17F4AB3
:100ABC007E4B1B6843F480731360FFF76BFE386149
:100ACC0008E0FFF767FE02463B69D31A642B01D995
:100ADC000323E5E0754B1B6803F48073002BF0D007
:100AEC007B68DB68012B06D16F4A6F4B1B6A43F0A6
:100AFC00010313622DE07B68DB68002B0CD16A4A82
:100B0C00694B1B6A23F001031362674A664B1B6A2D
:100B1C0023F0040313621CE07B68DB68052B0CD10B
:100B2C00614A614B1B6A43F0040313625E4A5E4BDD
:100B3C001B6A43F0010313620BE05B4A5A4B1B6ABE
:100B4C0023F001031362584A574B1B6A23F004032A
:100B5C0013627B68DB68002B15D0FFF71BFE386136
:100B6C000AE0FFF717FE02463B69D31A41F28832BE
:100B7C00934201D9032393E04B4B1B6A03F002030E
:100B8C00002BEED014E0FFF705FE38610AE0FFF70A
:100B9C0001FE02463B69D31A41F28832934201D9D5
:100BAC0003237DE0404B1B6A03F00203002BEED1C4
:100BBC00FB7D012B05D13C4A3B4BDB6923F0805379
:100BCC00D3617B68DB69002B69D0374B5B6803F022
:100BDC000C03082B61D07B68DB69022B46D1344BAC
:100BEC0000221A60FFF7D6FD386108E0FFF7D2FD4E
:100BFC0002463B69D31A022B01D9032350E02A4B3E
:100C0C001B6803F00073002BF0D17B681B6AB3F5F3
:100C1C00803F08D12449244B5B6823F400327B6865
:100C2C009B6813434B6020481F4B5B6823F4741282
:100C3C007B68196A7B685B6A0B43134343601C4BEC
:100C4C0001221A60FFF7A6FD386108E0FFF7A2FD4C
:100C5C0002463B69D31A022B01D9032320E0124B25
:100C6C001B6803F00073002BF0D018E0104B00222F
:100C7C001A60FFF78FFD386108E0FFF78BFD024625
:100C8C003B69D31A022B01D9032309E0064B1B68DD
:100C9C0003F00073002BF0D101E0012300E00023EE
:100CAC0018461837BD4680BD001002400070004049
:100CBC006000424280B584B000AF78603960002398
:100CCC00FB60734B1B6803F007023B689A4210D21F
:100CDC006F496F4B1B6823F007023B6813430B6093
:100CEC006B4B1B6803F007023B689A4201D001234F
:100CFC00C9E07B681B6803F00203002B08D0654930
:100D0C00644B5B6823F0F0027B689B6813434B6079
:100D1C007B681B6803F00103002B6BD07B685B685E
:100D2C00012B07D15B4B1B6803F40033002B15D14F
:100D3C000123A8E07B685B68022B07D1554B1B682D
:100D4C0003F00073002B09D101239CE0514B1B686D
:100D5C0003F00203002B01D1012394E04D494D4BCC
:100D6C005B6823F003027B685B6813434B60FFF7FF
:100D7C0011FDF8607B685B68012B12D10AE0FFF76C
:100D8C0009FD0246FB68D31A41F28832934201D91D
:100D9C00032378E03F4B5B6803F00C03042BEED18C
:100DAC0028E07B685B68022B12D10AE0FFF7F2FCAB
:100DBC000246FB68D31A41F28832934201D90323CD
:100DCC0061E0344B5B6803F00C03082BEED111E0AF
:100DDC000AE0FFF7DFFC0246FB68D31A41F28832C7
:100DEC00934201D903234EE02A4B5B6803F00C03BA
:100DFC00002BEED1264B1B6803F007023B689A428E
:100E0C0010D92349224B1B6823F007023B6813437C
:100E1C000B601F4B1B6803F007023B689A4201D022
:100E2C00012330E07B681B6803F00403002B08D01F
:100E3C001849184B5B6823F4E0627B68DB6813434A
:100E4C004B607B681B6803F00803002B09D0114929
:100E5C00104B5B6823F460527B681B69DB00134307
:100E6C004B6000F01DF801460A4B5B6803F0F00381
:100E7C001B09094AD35C21FA03F3084A13600020CA
:100E8C00FFF746FC002318461037BD4680BD00BF57
:100E9C0000200240001002400C2700080C0000202B
:100EAC0090B48AB000AF2B4B3C1D186859689A68F7
:100EBC00DB680FC4284A3B4612881A800023FB616A
:100ECC000023BB6100237B6200237B6100233B6218
:100EDC00224B5B68FB61FB6903F00C03042B02D013
:100EEC00082B03D02DE01E4B3B622DE0FB6903F475
:100EFC0070139B0C07F12802134413F8243C7B61FC
:100F0C00FB6903F48033002B13D0144B5B6803F4A0
:100F1C0000335B0C07F12802134413F8283CBB6127
:100F2C007B690F4A02FB03F2BB69B2FBF3F37B62F2
:100F3C0004E07B690B4A02FB03F37B627B6A3B6236
:100F4C0002E0074B3B6200BF3B6A18462837BD46A0
:100F5C0090BC7047F82600080827000800100240D3
:100F6C0000127A0000093D0080B400AF034B1B68EF
:100F7C001846BD465DF8047B704700BF0C0000208E
:100F8C0080B500AFFFF7F0FF0146054B5B6803F43B
:100F9C00E0631B0A034AD35C21FA03F3184680BDB5
:100FAC00001002401C27000880B500AFFFF7DCFFE3
:100FBC000146054B5B6803F46053DB0A034AD35CC0
:100FCC0021FA03F3184680BD001002401C270008CC
:100FDC0080B485B000AF78600A4B1B680A4AA2FB4C
:100FEC0003235B0A7A6802FB03F3FB6000BFFB6818
:100FFC005A1EFA60002BF9D11437BD465DF8047BFC
:10100C00704700BF0C000020D34D621080B48BB031
:10101C0000AF786039600023FB610023BB610023C3
:10102C007B6100233B6200233B6100237B6228E150
:10103C007B6A012202FA03F3FB613B681A68FB69C5
:10104C001340BB61BA69FB699A4240F017813B6857
:10105C005B68122B34D0122B0DD8022B2BD0022B09
:10106C0004D8002B31D0012B1CD049E0032B44D0E9
:10107C00112B1BD044E0874A934226D0854A9342D9
:10108C0006D8854A934220D0844A93421DD037E03B
:10109C00834A934219D0834A934216D0824A934290
:1010AC0013D02DE03B68DB683B6229E03B68DB68D2
:1010BC0004333B6224E03B68DB6808333B621FE08F
:1010CC003B68DB680C333B621AE03B689B68002B87
:1010DC0002D104233B620FE03B689B68012B05D1D6
:1010EC0008233B627B68FA691A6105E008233B62BE
:1010FC007B68FA695A6103E002E000233B6200BF9F
:10110C00BB69FF2B01D87B6801E07B680433FB6073
:10111C00BB69FF2B02D87B6A9B0002E07B6A083B11
:10112C009B003B61FB681A683B690F2101FA03F3D2
:10113C00DB431A403B69396A01FA03F31A43FB6833
:10114C001A603B685B6803F08053002B00F09680BC
:10115C00564A564B9B6943F001039361534B9B6971
:10116C0003F00103BB60BB68514A7B6A9B080233E6
:10117C0052F823307B617B6A03F003039B001A4611
:10118C000F239340DB437A6913407B617B68494AA8
:10119C00934213D07B68484A93420DD07B68474AF0
:1011AC00934207D07B68464A934201D1032306E061
:1011BC00042304E0022302E0012300E000237A6A06
:1011CC0002F00302920093407A6913437B61384921
:1011DC007B6A9B0802337A6941F823203B685B6881
:1011EC0003F48033002B06D03649364B1A68BB69A2
:1011FC0013430B6006E03349324B1A68BB69DB437F
:10120C0013400B603B685B6803F40033002B06D083
:10121C002C492C4B5A68BB6913434B6006E0294997
:10122C00284B5A68BB69DB4313404B603B685B68D7
:10123C0003F48013002B06D02249224B9A68BB6919
:10124C0013438B6006E01F491E4B9A68BB69DB4356
:10125C0013408B603B685B6803F40013002B06D0D3
:10126C001849184BDA68BB691343CB6006E0154983
:10127C00144BDA68BB69DB431340CB607B6A0133E8
:10128C007B627B6A0F2B7FF6D3AE2C37BD465DF8A5
:10129C00047B704700002110000011100000121098
:1012AC00000031100000321000002210001002402B
:1012BC000000014000080140000C014000100140FA
:1012CC00001401400004014080B483B000AF78608A
:1012DC000B467B8013467B707B78002B03D07A887F
:1012EC007B681A6103E07B881A047B681A610C37EF
:1012FC00BD465DF8047B704780B582B000AF0346F5
:10130C00FB80084B5A69FB881340002B06D0054A1A
:10131C00FB885361FB88184600F006F80837BD4679
:10132C0080BD00BF0004014080B483B000AF034611
:10133C00FB800C37BD465DF8047B704780B485B0EC
:10134C0000AF78600023FB607B68002B01D1012388
:10135C004FE07B681B681A46294B1344294AA2FBB1
:10136C0003231B099A007B681A647B68264ADA639C
:10137C007B68022283F821207B681B681B68FB605A
:10138C00FB6823F47F5323F03003FB607B685A68BF
:10139C007B689B681A437B68DB681A437B681B6914
:1013AC001A437B685B691A437B689B691A437B68A9
:1013BC00DB691343FA681343FB607B681B68FA68AC
:1013CC001A607B6800229A627B680022DA627B6872
:1013DC0000221A637B6800225A637B6800229A639E
:1013EC007B68012283F821207B68002283F820206F
:1013FC00002318461437BD465DF8047B704700BFC8
:10140C00F8FFFDBFCDCCCCCC0000024080B586B03F
:10141C0000AFF860B9607A603B600023FB75FB6835
:10142C0093F82030012B01D102234AE0FB68012202
:10143C0083F82020FB6893F82130012B3AD1FB680C
:10144C00022283F82120FB6800229A63FB681B6848
:10145C00FA681268126822F001021A60F868B9681A
:10146C007A683B6800F0C6F9FB68DB6A002B08D091
:10147C00FB681B68FA681268126842F00E021A6068
:10148C000FE0FB681B68FA681268126822F004020D
:10149C001A60FB681B68FA681268126842F00A024C
:1014AC001A60FB681B68FA681268126842F0010245
:1014BC001A6005E0FB68002283F820200223FB75EC
:1014CC00FB7D18461837BD4680BD00BF80B584B083
:1014DC0000AF78600023FB737B6893F82130022BFC
:1014EC0005D07B6804229A630123FB7357E07B6869
:1014FC001B687A681268126822F00E021A607B6808
:10150C001B687A681268126822F001021A60264A77
:10151C007B681B681946254B99422ED07B681B684B
:10152C001946234B994226D07B681B681946214BE0
:10153C0099421DD07B681B6819461F4B994214D0E9
:10154C007B681B6819461D4B99420BD07B681B6846
:10155C0019461B4B994202D14FF480130EE04FF009
:10156C0080730BE04FF4803308E04FF4805305E0B8
:10157C004FF4807302E0102300E0012353607B687A
:10158C00012283F821207B68002283F820207B68CD
:10159C005B6B002B03D07B685B6B78689847FB7B9D
:1015AC0018461037BD4680BD0000024008000240BE
:1015BC001C0002403000024044000240580002402F
:1015CC006C00024080B584B000AF78607B68DB6B48
:1015DC001B68FB607B681B681B68BB607B681B6CB3
:1015EC001A46042303FA02F2FB681340002B55D071
:1015FC00BB6803F00403002B50D07B681B681B688E
:10160C0003F02003002B07D17B681B687A681268F3
:10161C00126822F004021A606F4A7B681B68194634
:10162C006E4B99422ED07B681B6819466C4B9942C5
:10163C0026D07B681B6819466A4B99421DD07B6883
:10164C001B681946684B994214D07B681B68194675
:10165C00664B99420BD07B681B681946644B9942C8
:10166C0002D14FF480030EE04FF080630BE04FF497
:10167C00802308E04FF4804305E04FF4806302E0E0
:10168C00402300E0042353607B68DB6A002B04D00A
:10169C007B68DB6A786898479AE099E07B681B6CFA
:1016AC001A46022303FA02F2FB681340002B5DD0AA
:1016BC00BB6803F00203002B58D07B681B681B68C7
:1016CC0003F02003002B0BD17B681B687A6812682F
:1016DC00126822F00A021A607B68012283F821202A
:1016EC003D4A7B681B6819463C4B99422ED07B685F
:1016FC001B6819463A4B994226D07B681B681946E1
:10170C00384B99421DD07B681B681946364B994261
:10171C0014D07B681B681946344B99420BD07B68FC
:10172C001B681946324B994202D14FF400130EE05C
:10173C004FF000730BE04FF4003308E04FF400530C
:10174C0005E04FF4007302E0202300E00223536015
:10175C007B68002283F820207B689B6A002B04D0D6
:10176C007B689B6A7868984732E031E07B681B6C39
:10177C001A46082303FA02F2FB681340002B27D009
:10178C00BB6803F00803002B22D07B681B687A68C7
:10179C001268126822F00E021A607B68DB6B7A68A2
:1017AC00126C114601228A405A607B6801229A63AE
:1017BC007B68012283F821207B68002283F820209B
:1017CC007B681B6B002B03D07B681B6B786898477E
:1017DC0000BF1037BD4680BD00000240080002402B
:1017EC001C000240300002404400024058000240FD
:1017FC006C00024080B485B000AFF860B9607A60CC
:10180C003B60FB68DB6BFA68126C114601228A4064
:10181C005A60FB681B683A685A60FB685B68102B5F
:10182C0008D1FB681B687A689A60FB681B68BA6809
:10183C00DA6007E0FB681B68BA689A60FB681B6893
:10184C007A68DA601437BD465DF8047B704700BFD8
:10185C0080B485B000AF78607B6803F00703FB6051
:10186C000C4BDB68BB60BA684FF6FF031340BB60E0
:10187C00FB681A02BB68134343F0BF6343F40033A5
:10188C00BB60044ABB68D3601437BD465DF8047B6B
:10189C00704700BF00ED00E080B400AF044BDB6884
:1018AC0003F4E0631B0A1846BD465DF8047B7047E1
:1018BC0000ED00E080B483B000AF0346FB71084933
:1018CC0097F907305B09FA7902F01F02012000FA40
:1018DC0002F241F823200C37BD465DF8047B7047BB
:1018EC0000E100E080B483B000AF03463960FB71C7
:1018FC0097F90730002B0BDA0D49FB7903F00F0336
:10190C00043B3A68D2B21201D2B20B441A7609E007
:10191C00084997F907303A68D2B21201D2B20B4497
:10192C0083F800230C37BD465DF8047B704700BF7D
:10193C0000ED00E000E100E080B489B000AFF86099
:10194C00B9607A60FB6803F00703FB61FB69C3F1C4
:10195C000703042B28BF0423BB61FB690433062B4C
:10196C0002D9FB69033B00E000237B61BB690122C8
:10197C0002FA03F35A1EBB681A407B699A407B69D2
:10198C00012101FA03F3591E7B680B4013431846DF
:10199C002437BD465DF8047B704700BF80B582B02C
:1019AC0000AF78607B68013BB3F1807F01D30123EA
:1019BC000FE00A4A7B68013B53604FF0FF300F2168
:1019CC00FFF790FF054B00229A60044B07221A6028
:1019DC00002318460837BD4680BD00BF10E000E06C
:1019EC0080B582B000AF78607868FFF731FF0837B8
:1019FC00BD4680BD80B586B000AF0346B9607A6045
:101A0C00FB7300237B61FFF747FF78617869B96846
:101A1C007A68FFF791FF024697F90F301846114686
:101A2C00FFF760FF1837BD4680BD00BF80B582B0A0
:101A3C0000AF0346FB7197F907301846FFF73AFFE2
:101A4C000837BD4680BD00BF80B582B000AF78605E
:101A5C007868FFF7A3FF034618460837BD4680BDDC
:101A6C0080B483B000AF78607B68042B06D1094A40
:101A7C00084B1B6843F00403136005E0054A054B53
:101A8C001B6823F0040313600C37BD465DF8047B20
:101A9C00704700BF10E000E080B500AF00F002F826
:101AAC0080BD00BF80B400AFBD465DF8047B7047BD
:101ABC0080B400AF154A154B1B6843F0010313604B
:101ACC001249124B5A68124B13404B600F4A0F4B82
:101ADC001B6823F0847323F4803313600B4A0B4B85
:101AEC001B6823F480231360084A084B5B6823F4BB
:101AFC00FE035360054B4FF41F029A60054B4FF0E9
:101B0C0000629A60BD465DF8047B7047001002408D
:101B1C000000FFF800ED00E080B582B000AF786007
:101B2C007B68002B01D101233FE07B6893F83930AF
:101B3C00DBB2002B06D17B68002283F83820786852
:101B4C00FEF734FD7B68242283F839207B681B6800
:101B5C007A681268D26822F40052DA60786800F071
:101B6C0041FC7B681B687A681268126922F4904207
:101B7C001A617B681B687A681268526922F02A0223
:101B8C005A617B681B687A681268D26842F400520A
:101B9C00DA607B680022DA637B68202283F83920C4
:101BAC007B68202283F83A20002318460837BD466C
:101BBC0080BD00BF90B587B000AFF860B960134628
:101BCC00FB80FB6893F83930DBB2202B56D1BB6815
:101BDC00002B02D0FB88002B01D101234FE0FB68C6
:101BEC0093F83830012B01D1022348E0FB68012225
:101BFC0083F83820BA68FB681A62FB68FA889A8402
:101C0C00FB68FA88DA84FB680022DA63FB6821221D
:101C1C0083F83920FB681B6B1B4A9A62FB681B6BB1
:101C2C001A4ADA62FB681B6B194A1A63FB681B6B56
:101C3C0000225A6307F108037B61FB68196B7B690F
:101C4C001A68FB681B6804331C46FB88084611465F
:101C5C002246FFF7DBFBFB681B686FF040021A6043
:101C6C00FB68002283F83820FB681B68FA6812684E
:101C7C00526942F080025A61002300E002231846A8
:101C8C001C37BD4690BD00BFFD1F00084D2000084D
:101C9C00ED20000890B587B000AFF860B96013462E
:101CAC00FB80FB6893F83A30DBB2202B68D1BB6821
:101CBC00002B02D0FB88002B01D1012361E0FB68D3
:101CCC0093F83830012B01D102235AE0FB68012232
:101CDC0083F83820BA68FB689A62FB68FA889A85A0
:101CEC00FB680022DA63FB68222283F83A20FB6847
:101CFC005B6B264A9A62FB685B6B254ADA62FB686F
:101D0C005B6B244A1A63FB685B6B00225A6307F116
:101D1C0008037B61FB68596BFB681B6804331C462A
:101D2C007B691A68FB8808462146FFF76FFB002386
:101D3C003B61FB681B681B683B61FB681B685B684D
:101D4C003B613B69FB68002283F83820FB681B6809
:101D5C00FA681268D26842F48072DA60FB681B6819
:101D6C00FA681268526942F001025A61FB681B68FA
:101D7C00FA681268526942F040025A61002300E08E
:101D8C00022318461C37BD4690BD00BF69200008D1
:101D9C00D1200008ED20000880B588B000AF786035
:101DAC007B681B681B68FB617B681B68DB68BB611D
:101DBC007B681B685B697B6100233B610023FB60D4
:101DCC00FB6903F00F033B613B69002B0DD1FB69F1
:101DDC0003F02003002B08D0BB6903F02003002B79
:101DEC0003D0786800F07CFACAE03B69002B00F065
:101DFC00AB807B6903F00103002B05D1BB6903F4B5
:101E0C009073002B00F0A080FB6903F00103002B02
:101E1C000AD0BB6903F48073002B05D07B68DB6BA5
:101E2C0043F001027B68DA63FB6903F00403002BC7
:101E3C000AD07B6903F00103002B05D07B68DB6BB8
:101E4C0043F002027B68DA63FB6903F00203002BA8
:101E5C000AD07B6903F00103002B05D07B68DB6B98
:101E6C0043F004027B68DA63FB6903F00803002B80
:101E7C000AD07B6903F00103002B05D07B68DB6B78
:101E8C0043F008027B68DA637B68DB6B002B5AD06B
:101E9C00FB6903F02003002B07D0BB6903F0200380
:101EAC00002B02D0786800F01BFA7B681B685B691A
:101EBC0003F04003002B14BF01230023DBB2FB60B3
:101ECC007B68DB6B03F00803002B02D1FB68002B53
:101EDC0032D0786800F064F97B681B685B6903F0AA
:101EEC004003002B23D07B681B687A681268526908
:101EFC0022F040025A617B685B6B002B13D07B682D
:101F0C005B6B214A5A637B685B6B1846FFF7DEFA02
:101F1C000346002B0FD07B685B6B5B6B7A68526B54
:101F2C001046984707E0786800F058F80BE078689E
:101F3C0000F054F807E006E0786800F04FF87B6892
:101F4C000022DA631CE01BE0FB6903F08003002B2A
:101F5C0008D0BB6903F08003002B03D0786800F035
:101F6C0051F90DE0FB6903F04003002B08D0BB696D
:101F7C0003F04003002B03D0786800F099F900BF00
:101F8C002037BD4680BD00BFE921000880B483B076
:101F9C0000AF78600C37BD465DF8047B704700BF1E
:101FAC0080B483B000AF78600C37BD465DF8047B1D
:101FBC00704700BF80B483B000AF78600C37BD466B
:101FCC005DF8047B704700BF80B483B000AF7860CD
:101FDC000C37BD465DF8047B704700BF80B483B0FE
:101FEC0000AF78600C37BD465DF8047B704700BFCE
:101FFC0080B584B000AF78607B685B6AFB607B68FF
:10200C001B681B6803F02003002B13D1FB68002214
:10201C00DA84FB681B68FA681268526922F0800245
:10202C005A61FB681B68FA681268D26842F0400279
:10203C00DA6002E0F868FFF7A9FF1037BD4680BDF3
:10204C0080B584B000AF78607B685B6AFB60F86831
:10205C00FFF7A6FF1037BD4680BD00BF80B584B02A
:10206C0000AF78607B685B6AFB607B681B681B68F1
:10207C0003F02003002B1ED1FB680022DA85FB68DD
:10208C001B68FA681268D26822F48072DA60FB6806
:10209C001B68FA681268526922F001025A61FB68E7
:1020AC001B68FA681268526922F040025A61FB6898
:1020BC00202283F83A20F868FFF77CFF1037BD46E2
:1020CC0080BD00BF80B584B000AF78607B685B6A70
:1020DC00FB60F868FFF778FF1037BD4680BD00BF86
:1020EC0080B584B000AF78600023FB607B685B6ACE
:1020FC00BB60BB681B685B6903F08003002B14BFDB
:10210C0001230023DBB2FB60BB6893F83930DBB2F0
:10211C00212B08D1FB68002B05D0BB680022DA8488
:10212C00B86800F027F8BB681B685B6903F04003D4
:10213C00002B14BF01230023DBB2FB60BB6893F8B8
:10214C003A30DBB2222B08D1FB68002B05D0BB68E0
:10215C000022DA85B86800F023F8BB68DB6B43F02B
:10216C001002BB68DA63B868FFF738FF1037BD465A
:10217C0080BD00BF80B483B000AF78607B681B6803
:10218C007A681268D26822F0C002DA607B6820227A
:10219C0083F839200C37BD465DF8047B704700BFCF
:1021AC0080B483B000AF78607B681B687A68126873
:1021BC00D26822F49072DA607B681B687A681268C5
:1021CC00526922F001025A617B68202283F83A207E
:1021DC000C37BD465DF8047B704700BF80B584B0FA
:1021EC0000AF78607B685B6AFB60FB680022DA8575
:1021FC00FB680022DA84F868FFF7F0FE1037BD4662
:10220C0080BD00BF80B485B000AF78607B6893F868
:10221C003930DBB2212B43D17B689B68B3F5805FEF
:10222C0019D17B681B6AFB607B681B68FA68128893
:10223C00C2F308025A607B681B69002B05D17B68CE
:10224C001B6A9A1C7B681A620EE07B681B6A5A1C1C
:10225C007B681A6208E07B681A687B681B6A581CEA
:10226C00796808621B7853607B68DB8C9BB2013BFE
:10227C009BB27A681946D184002B0FD17B681B68FE
:10228C007A681268D26822F08002DA607B681B6878
:10229C007A681268D26842F04002DA60002300E0EB
:1022AC00022318461437BD465DF8047B704700BF07
:1022BC0080B582B000AF78607B681B687A68126862
:1022CC00D26822F04002DA607B68202283F8392041
:1022DC007868FFF75BFE002318460837BD4680BDC3
:1022EC0080B584B000AF78607B6893F83A30DBB28D
:1022FC00222B71D17B689B68B3F5805F23D17B68FF
:10230C009B6AFB607B681B69002B0ED17B681B688A
:10231C005B689BB2C3F308039AB2FB681A807B68B4
:10232C009B6A9A1C7B689A6229E07B681B685B68D5
:10233C009BB2DBB29AB2FB681A807B689B6A5A1C10
:10234C007B689A621BE07B681B69002B0AD17B6857
:10235C009B6A591C7A6891627A6812685268D2B288
:10236C001A700CE07B689B6A591C7A6891627A68D7
:10237C0012685268D2B202F07F02D2B21A707B6835
:10238C00DB8D9BB2013B9BB27A681946D185002B41
:10239C0020D17B681B687A681268D26822F0200210
:1023AC00DA607B681B687A681268D26822F48072E3
:1023BC00DA607B681B687A681268526922F0010245
:1023CC005A617B68202283F83A207868FFF7F2FD87
:1023DC00002302E0002300E0022318461037BD461C
:1023EC0080BD00BFF0B585B000AF78600023FB6006
:1023FC007B681B687A681268126922F440517A680B
:10240C00D2680A431A617B689A687B681B691A4315
:10241C007B685B691343FA681343FB607B681A683B
:10242C007B681B68DB6823F4B05323F00C03F9685A
:10243C000B43D3607B681B687A681268526922F47C
:10244C0040717A6892690A435A617B681B686E4ACC
:10245C0093426BD17B681C68FEF7A6FD02461346BF
:10246C009B0013449A001A447B685B689B00B2FB88
:10247C00F3F3664AA2FB03235B091D01FEF794FDEF
:10248C00024613469B0013449A001A447B685B680F
:10249C009B00B2FBF3F6FEF787FD024613469B004A
:1024AC0013449A001A447B685B689B00B2FBF3F3FD
:1024BC00564AA2FB03235B09642202FB03F3F31AC3
:1024CC001B013233514AA2FB03235B0903F0F003D7
:1024DC001D44FEF769FD024613469B0013449A0007
:1024EC001A447B685B689B00B2FBF3F6FEF75CFD5D
:1024FC00024613469B0013449A001A447B685B689F
:10250C009B00B2FBF3F3414AA2FB03235B09642259
:10251C0002FB03F3F31A1B0132333C4AA2FB0323E5
:10252C005B0903F00F032B44A3606AE07B681C6813
:10253C00FEF726FD024613469B0013449A001A44EC
:10254C007B685B689B00B2FBF3F3304AA2FB03236E
:10255C005B091D01FEF714FD024613469B00134454
:10256C009A001A447B685B689B00B2FBF3F6FEF79B
:10257C0007FD024613469B0013449A001A447B68DD
:10258C005B689B00B2FBF3F3204AA2FB03235B09BD
:10259C00642202FB03F3F31A1B0132331B4AA2FB26
:1025AC0003235B0903F0F0031D44FEF7E9FC02462C
:1025BC0013469B0013449A001A447B685B689B008B
:1025CC00B2FBF3F6FEF7DCFC024613469B00134409
:1025DC009A001A447B685B689B00B2FBF3F30B4ACE
:1025EC00A2FB03235B09642202FB03F3F31A1B0116
:1025FC003233064AA2FB03235B0903F00F032B447F
:10260C00A3601437BD46F0BD003801401F85EB5167
:10261C00002103E00B4B5B58435004310A480B4B31
:10262C0042189A42F6D30A4A02E0002342F8043BCD
:10263C00084B9A42F9D3FFF73BFA00F00FF8FDF77D
:10264C00B1FD70472C27000800000020100000206E
:10265C0010000020FC000020FEE700000E4B70B5BF
:10266C001E460E4C0025E41AA410A54204D056F8C0
:10267C00253098470135F8E700F016F8084B094C5F
:10268C001E46E41AA4100025A54204D056F82530A5
:10269C0098470135F8E770BD242700082427000867
:1026AC002427000828270008F8B500BFF8BC08BC90
:1026BC009E467047F8B500BFF8BC08BC9E467047F4
:1026CC0048656C6C6F0000005372632F6D61696E0E
:1026DC002E6300005372632F73746D33326631783E
:1026EC00785F68616C5F6D73702E63000203040584
:1026FC00060708090A0B0C0D0E0F10100102000042
:10270C000000000000000000010203040607080995
:08271C000000000001020304AB
:04272400790100082F
:042728005101000853
:10272C0001000000100000000100000000A24A049B
:040000050800261DAC
:00000001FF
